:100000000C942A000C943A020C943C000C943C0092
:100010000C943C000C943C000C943C000C943C0070
:100020000C943C000C943C000C943C000C943C0060
:100030000C943C000C943C000C943C000C943C0050
:100040000C943C000C943C000C943C000C943C0040
:100050000C943C0011241FBECFE5D8E0DEBFCDBF1D
:1000600020E0A0E6B0E001C01D92A536B207E1F79E
:100070000E9461020C945B040C94000062E084E432
:100080000E94440260E081E40E944A0261E081E44F
:100090000E944A0262E081E40E944A0260E082E437
:1000A0000E944A0261E082E40E944A0262E082E425
:1000B0000E944A02789485B7826085BF8BB78064BE
:1000C0008BBF60E080E00E94BF036CE070E080E0E6
:1000D0000E94DB03089580916100882321F0813024
:1000E00009F496C0F8CF83E08093640062E081E475
:1000F0000E94500260E082E40E94500220E034E05E
:1001000044E050E065E070E080E00E9419046CE09B
:1001100070E080E00E94DB0382E08093640062E094
:1001200081E40E94560217C061E081E40E945C02F3
:1001300020E034E044E050E061E070E080E00E94C4
:1001400019046CE070E080E00E94DB0380916000A5
:100150008F5F8093600080916000853029F7109256
:10016000600060E082E40E94560281E080936400B7
:1001700061E081E40E94560260E081E40E94500246
:1001800062E082E40E94500220E034E044E050E06B
:1001900065E070E080E00E9419046CE070E080E0AF
:1001A0000E94DB0382E08093640060E081E40E94AF
:1001B000560262E082E40E9456021BC061E081E4C4
:1001C0000E945C0261E082E40E945C0220E034E074
:1001D00044E050E061E070E080E00E9419046CE0CF
:1001E00070E080E00E94DB03809160008F5F80936D
:1001F000600080916000853009F71092600061E036
:1002000081E40E94560261E082E40E94560263CFBC
:10021000F89480916400823009F443C0833009F47B
:10022000B3C0813009F022C162E082E40E94500232
:1002300020E034E044E050E065E070E080E00E94BF
:1002400019046CE070E080E00E94DB0360E081E470
:100250000E94560217C061E081E40E945C0220E027
:1002600034E044E050E061E070E080E00E94190476
:100270006CE070E080E00E94DB03809160008F5FA3
:100280008093600080916000853029F710926000B3
:1002900061E081E40E94560262E082E40E9456021C
:1002A000E5C061E081E40E94560260E082E40E94C1
:1002B00056021BC061E081E40E945C0261E082E4BE
:1002C0000E945C0220E034E044E050E061E070E035
:1002D00080E00E9419046CE070E080E00E94DB0383
:1002E000809160008F5F8093600080916000853016
:1002F00009F71092600061E081E40E94560260E01C
:1003000081E40E94500261E082E40E94560262E0B1
:1003100082E40E94500220E034E044E050E065E0D6
:1003200070E080E00E9419046CE070E080E00E94C0
:10033000DB0360E081E40E94560217C061E081E4C3
:100340000E945C0220E034E044E050E061E070E0B4
:1003500080E00E9419046CE070E080E00E94DB0302
:10036000809160008F5F8093600080916000853095
:1003700029F71092600062E082E40E94560261E078
:1003800081E40E94560272C062E081E40E9456023B
:1003900060E082E40E9456021BC061E081E40E949A
:1003A0005C0261E082E40E945C0220E034E044E010
:1003B00050E061E070E080E00E9419046CE070E0C1
:1003C00080E00E94DB03809160008F5F809360007B
:1003D00080916000853009F71092600061E081E44F
:1003E0000E94560260E081E40E94500261E082E4D3
:1003F0000E94560262E082E40E94500220E034E053
:1004000044E050E065E070E080E00E9419046CE098
:1004100070E080E00E94DB0360E081E40E9456020D
:1004200017C061E081E40E945C0220E034E044E017
:1004300050E061E070E080E00E9419046CE070E040
:1004400080E00E94DB03809160008F5F80936000FA
:1004500080916000853029F71092600062E082E4AC
:100460000E94560261E081E40E94560210926100EF
:10047000789431CE1F920F920FB60F92112481E023
:10048000809361000E946B0040E00E94680281112D
:1004900081E0089541E00E946802811181E00895A1
:1004A00041E00E94F502811181E0089540E00E9440
:1004B000F502811181E008950E948203811181E09B
:1004C00008950E943E000E946B0080E090E0089535
:1004D000823449F118F4813441F07DC0833409F449
:1004E00040C0843409F45AC076C041110DC02AB30B
:1004F00081E090E002C0880F991F6A95E2F780952D
:1005000082238ABB80E00895413009F066C02AB397
:1005100081E090E002C0880F991F6A95E2F7822B74
:100520008ABB80E0089541110DC027B381E090E0BF
:1005300002C0880F991F6A95E2F78095822387BBD6
:1005400080E00895413009F04AC027B381E090E08F
:1005500002C0880F991F6A95E2F7822B87BB80E063
:10056000089541110DC024B381E090E002C0880FCE
:10057000991F6A95E2F78095822384BB80E00895F5
:10058000413079F524B381E090E002C0880F991FD3
:100590006A95E2F7822B84BB80E0089541110DC07B
:1005A00021B381E090E002C0880F991F6A95E2F7BD
:1005B0008095822381BB80E008954130A1F421B36E
:1005C00081E090E002C0880F991F6A95E2F7822BC4
:1005D00081BB80E0089581E0089581E0089581E085
:1005E000089581E0089581E00895823449F118F476
:1005F000813441F07DC0833409F440C0843409F46F
:100600005AC076C041110DC02BB381E090E002C00A
:10061000880F991F6A95E2F7809582238BBB80E053
:100620000895413009F066C02BB381E090E002C02C
:10063000880F991F6A95E2F7822B8BBB80E00895A3
:1006400041110DC028B381E090E002C0880F991FCE
:100650006A95E2F78095822388BB80E00895413057
:1006600009F04AC028B381E090E002C0880F991FCA
:100670006A95E2F7822B88BB80E0089541110DC096
:1006800025B381E090E002C0880F991F6A95E2F7D8
:100690008095822385BB80E00895413079F525B3AC
:1006A00081E090E002C0880F991F6A95E2F7822BE3
:1006B00085BB80E0089541110DC022B381E090E038
:1006C00002C0880F991F6A95E2F78095822382BB4A
:1006D00080E008954130A1F422B381E090E002C0AF
:1006E000880F991F6A95E2F7822B82BB80E00895FC
:1006F00081E0089581E0089581E0089581E0089502
:1007000081E008958234A9F018F4813431F035C0C5
:100710008334D9F0843429F130C02BB381E090E0E8
:1007200002C0880F991F6A95E2F782278BBB80E091
:10073000089528B381E090E002C0880F991F6A9560
:10074000E2F7822788BB80E0089525B381E090E03E
:1007500002C0880F991F6A95E2F7822785BB80E067
:10076000089522B381E090E002C0880F991F6A9536
:10077000E2F7822782BB80E0089581E0089581112D
:1007800016C0611102C013BE0895603421F480E4E4
:1007900083BF80E00895683021F488E083BF80E063
:1007A0000895683431F488E483BF80E0089581E0DF
:1007B000089581E00895811102C062BF089581E02B
:1007C0000895811129C06130710529F483B78160D2
:1007D00083BF80E008956830710529F483B7826093
:1007E00083BF80E008956034710529F483B7836086
:1007F00083BF80E00895611581E0780729F483B70D
:10080000846083BF80E008956115744039F483B734
:10081000856083BF80E0089581E0089581E00895B8
:10082000811105C083B7887F83BF80E0089581E090
:100830000895FF920F931F93CF93DF93811132C0DE
:100840008A01EB01F82EB9010E94E103882391F09F
:1008500081E02BC008B600FEFDCF98B7916098BF2D
:1008600020916200309163002F5F3F4F309363000F
:1008700020936200C09F9001C19F300DD09F300D2A
:10088000112440916200509163004217530710F306
:1008900010926300109262008F2D0E94100481114B
:1008A00003C003C081E001C081E0DF91CF911F91BF
:0A08B0000F91FF900895F894FFCF18
:00000001FF
